:020000040800F2
:1000000000180020812200085D2200085F220008FD
:1000100000000000000000000000000000000000E0
:100020000000000000000000000000006122000845
:1000300000000000000000006322000865220008A4
:100040000123000801230008012300080123000800
:1000500001230008012300080123000801230008F0
:100060000123000801230008012300086D22000875
:1000700001230008012300080123000801230008D0
:100080000123000800000000000000000123000818
:1000900000000000012300080123000801230008DC
:1000A00000000000012300080123000801230008CC
:1000B00001230008000000000123000801230008BC
:1000C00010B5064C2378002B07D1054B002B02D02E
:1000D000044800E000BF0123237010BD0C00002085
:1000E000000000005C230008044B10B5002B03D077
:1000F0000349044800E000BF10BDC04600000000F6
:10010000100000205C230008002243088B4274D3B7
:1001100003098B425FD3030A8B4244D3030B8B4208
:1001200028D3030C8B420DD3FF22090212BA030C11
:100130008B4202D31212090265D0030B8B4219D3F2
:1001400000E0090AC30B8B4201D3CB03C01A524112
:10015000830B8B4201D38B03C01A5241430B8B425A
:1001600001D34B03C01A5241030B8B4201D30B0343
:10017000C01A5241C30A8B4201D3CB02C01A52416A
:10018000830A8B4201D38B02C01A5241430A8B422D
:1001900001D34B02C01A5241030A8B4201D30B0216
:1001A000C01A5241CDD2C3098B4201D3CB01C01A30
:1001B000524183098B4201D38B01C01A524143093A
:1001C0008B4201D34B01C01A524103098B4201D328
:1001D0000B01C01A5241C3088B4201D3CB00C01A95
:1001E000524183088B4201D38B00C01A524143080D
:1001F0008B4201D34B00C01A5241411A00D2014632
:10020000524110467047FFE701B5002000F006F8A4
:1002100002BDC0460029F7D076E770477047C04658
:1002200010B504000F4B1978FA208000FFF76CFF1F
:1002300001000D4B1868FFF767FF00F089F80028F0
:100240000DD1032C01D901200AE001300022210048
:10025000404200F03FF8034B5C60002000E00120CA
:1002600010BDC046000000200800002010B5064A5E
:10027000136810210B4313600020FFF7D1FF01F03A
:1002800045FF002010BDC04600200240034A11680F
:10029000034B1B785B1813607047C046700000204A
:1002A00000000020014B18687047C0467000002015
:1002B00070B50400FFF7F6FF0500631C02D0044B85
:1002C0001B78E418FFF7EEFF401BA042FAD370BD85
:1002D0000000002070B5002811DB8308144DC033E6
:1002E0009B005C5903221040C000FC32160086407F
:1002F000B44389010A40824022435A5170BDC0B2C2
:100300000F230340083B9B0806339B00094A944691
:1003100063445D6803242040C000FF221400844031
:10032000A54389011140814029435960E6E7C04651
:1003300000E100E000ED00E0002805DB1F2318408D
:100340001E3B8340014A13607047C04600E100E055
:1003500001380A4B98420FD8094A50600948036A8D
:100360001B021B0AC02109060B4303620023936092
:1003700007331360002070470120FCE7FFFFFF00F8
:1003800010E000E000ED00E070B5C56B0124066CE4
:10039000B4406C60046863604368102B04D0036849
:1003A00099600368DA6070BD03689A600368D96079
:1003B000F9E7000010B504000368064A9446634458
:1003C00018001421FFF7A0FE80002064024BE363B5
:1003D00010BDC046F8FFFDBF0000024070B5041E0E
:1003E00020D021250223435501680B680E4A1A408C
:1003F000436880680343E0680343206903436069FE
:100400000343A0690343E069034313430B602000E7
:10041000FFF7D0FF0023A363012262551F32A354CC
:10042000002070BD0120FCE70FC0FFFF70B5040085
:100430002020205C012832D02020012525540130C5
:10044000205C012804D020230022E254022070BD49
:100450002030013525540020A06325682868012636
:10046000B04328602000FFF78FFFE36A002B0BD01A
:10047000226813680E210B43136022681368012160
:100480000B4313600020E2E7226813680A210B4344
:1004900013602268136806398B431360EDE702206E
:1004A000D5E710B52123C35C022B03D0042383635B
:1004B000012010BD026813680E218B431360016890
:1004C0000A6801239A430A60C26B1900046CA140B8
:1004D0005160212283541F330022C254436B002BEE
:1004E00002D098470020E4E70020E2E770B5C36B34
:1004F0001A6804682568016C04238B401A4212D0E4
:100500006B0710D523689B0603D42368042293430A
:100510002360C26B0423016C8B405360C36A002BC1
:1005200000D0984770BD02238B401A4218D0AB0709
:1005300016D523689B0606D423680A2293432360BA
:100540002123093AC254C26B0223016C8B405360D1
:1005500020230022C254836A002BE3D09847E1E7AE
:1005600008238B401A42DDD02B07DBD523680E22EF
:1005700093432360C26B01231900046CA1405160B6
:100580008363212283541F330022C254036B002B48
:10059000C8D09847C6E70000F0B5C64600B582B09F
:1005A00000236EE084683440A446CC68BC406246B8
:1005B000144384604468AC434A681209012515401D
:1005C0009D4025434560C46826408C68BC40344348
:1005D000C4604A68D20053D54A4DAE69012426430F
:1005E000AE61AD692C400194019C9C08A51CAD0036
:1005F000454EAF5903251D40AD000F26AE40B74311
:100600009026F605B04275D0404EB04274D0404EB0
:10061000B0426DD00526AE4035003D430234A40003
:10062000394EA5513B4C25684246D4432E00264006
:100630004A68D20302D5424615432E00354D2E603E
:100640006D682E0026404A68920302D54246154343
:100650002E00304D6E60AD682E0026404A68D202F2
:1006600002D5424615432E002A4DAE60ED682C405F
:100670004A68920202D542462A431400254AD460B1
:1006800001330A681400DC4038D001259D402A401F
:100690009046F5D04C68022C01D0122C0ED1DC080B
:1006A0000834A400275807261E40B6000F22B24087
:1006B00097430A69B24016003E43265002685F0025
:1006C00003242600BE40F643324094464A68144054
:1006D000BC406246144304604C68621E012A00D884
:1006E00060E7112C00D15DE7122C00D06BE759E7D1
:1006F000022690E700268EE701268CE702B004BCB4
:100700009046F0BD00100240000001400004004887
:10071000000800480004014070B582B0041E00D1FA
:1007200085E20368DB072BD5B34B5A680C231340D3
:10073000042B1DD0B04B5A680C231340082B0ED04D
:100740006368012B41D0002B56D1AB4B1A68AB49E3
:100750000A401A601A68AA490A401A603BE0A64B90
:100760005B68C02252021340802252029342E7D1BA
:10077000A14B1B689B0303D56368002B00D159E292
:1007800023689B0778D59C4B5B680C221A4262D089
:10079000994B5A680C231340082B53D0E368002B65
:1007A00000D18BE0944A136801210B431360FFF7DB
:1007B00079FD0500904B1B689B0776D4FFF772FD0F
:1007C000401B0228F6D9032032E28B4A11688023AD
:1007D0005B020B4313606368002B25D0FFF762FDBB
:1007E0000500854B1B689B03CAD4FFF75BFD401BCC
:1007F0006428F6D903201BE2052B09D07E4B1A682A
:100800007E490A401A601A687D490A401A60E2E788
:10081000794B19688022D2020A431A601968802233
:1008200052020A431A60D6E7FFF73CFD0500724BFF
:100830001B689B03A4D5FFF735FD401B6428F6D940
:100840000320F5E16C4B5B68C0225202134080220A
:1008500012029342A2D1684B1B689B0704D5E36840
:10086000012B01D00120E3E163490B68F822934397
:100870002269D20013430B6023681B0744D5E36948
:10088000002B2ED05C4A536A01210B435362FFF7C1
:1008900009FD0500584B5B6A9B0735D4FFF702FD45
:1008A000401B0228F6D90320C2E153490B68F82205
:1008B00093432269D20013430B60DDE74E4A13686D
:1008C00001218B431360FFF7EDFC05004A4B1B68C9
:1008D0009B07D1D5FFF7E6FC401B0228F6D9032081
:1008E000A6E1454A536A01218B435362FFF7DAFCC4
:1008F0000500414B5B6A9B0706D5FFF7D3FC401B05
:100900000228F6D9032093E123685B0700D47FE037
:10091000394BDB69DB001DD4374AD16980204005A3
:100920000143D161D36903400193019B0125354BFC
:100930001B68DB0510D5A368012B21D0002B36D115
:100940002D4B1A6A01218A431A621A6A03318A43BB
:100950001A621AE00025EAE72A4A116880235B0040
:100960000B431360FFF79EFC0600264B1B68DB055C
:10097000E1D4FFF797FC801B6428F6D9032057E1E8
:100980001D4A136A01210B431362A368002B24D074
:10099000FFF788FC0600184B1B6A9B0736D4FFF74D
:1009A00081FC801B184B9842F5D9032040E1052BB0
:1009B00009D0114B1A6A01218A431A621A6A03315B
:1009C0008A431A62E1E70C4B1A6A04210A431A624D
:1009D0001A6A03390A431A62D7E7FFF763FC060075
:1009E000054B1B6A9B0711D5FFF75CFC801B064B70
:1009F0009842F5D903201BE100100240FFFFFEFFE3
:100A0000FFFFFBFF0070004088130000012D3AD06B
:100A10002368DB0610D56369012B3AD0053358D122
:100A2000884A536B04218B435363536BF4318B43DC
:100A3000A169C9000B43536323689B0600D482E07D
:100A4000804B5A680C2313400C2B60D07D4B5A68A6
:100A50000C231340082B53D0236A002B60D0794A13
:100A6000516B80235B020B435363FFF71BFC0500B4
:100A7000744B5B6BDB0366D4FFF714FC401B02284E
:100A8000F6D90320D4E06F4AD3696F490B40D36194
:100A9000BEE76C4B5A6B04210A435A635A6B033905
:100AA0000A435A63FFF7FEFB0500664B5B6B9B072F
:100AB00006D4FFF7F7FB401B0228F6D90320B7E066
:100AC00060494B6BF8229343A269D20013434B63F6
:100AD000B2E75C4B5A6B04210A435A635A6B0339E1
:100AE0008A435A63FFF7DEFB0500564B5B6B9B079F
:100AF000A2D5FFF7D7FB401B0228F6D9032097E0C9
:100B0000504B5B68C022520213409342A4D14D4B1C
:100B10005B6BDB0317D5236A012B14D0012087E020
:100B2000484A536B49490B405363FFF7BBFB050031
:100B3000444B5B6BDB0306D5FFF7B4FB401B02287D
:100B4000F6D9032074E0636A002B00D174E03D4ABB
:100B500051680C220A40082A4DD0022B12D0394A83
:100B600013683B490B401360FFF79CFB0400354BB7
:100B70001B689B013DD5FFF795FB001B0228F6D9AA
:100B8000032055E02F4A136831490B401360FFF7EB
:100B900089FB05002B4B1B689B0106D5FFF782FBE9
:100BA000401B0228F6D9032042E0264BDA6A0F21C7
:100BB0008A43216B0A43DA625A6826490A40E16A8D
:100BC000A06A01430A435A601968802252040A430A
:100BD0001A60FFF767FB04001A4B1B689B0106D4E1
:100BE000FFF760FB001B0228F6D9032020E000205D
:100BF0001EE000201CE0012B20D0124B5A68D96A5D
:100C0000C0235B021340A06A834201D001200FE0A1
:100C10000F230B40216B8B4201D0012008E0F02311
:100C20009B031A40E36A9A420AD0012000E00120A7
:100C300002B070BD0120FBE70020F9E70120F7E7D3
:100C40000020F5E700100240FFFFFFEFFFFFFEFF6F
:100C5000FFFFFFFEFF7FC2FF30B589B004AA1F4B24
:100C6000180032C832C2110002680A606A461033A6
:100C700013CB13C21B681360194B5A680C23134023
:100C8000082B04D00C2B26D0164809B030BD910C8F
:100C90000F23194004A8445C1149C96A0B406946F6
:100CA000C95CC0235B021A4080235B029A4208D0D1
:100CB000C0235B029A4209D00A48FFF725FA604335
:100CC000E3E70848FFF720FA6043DEE70648FFF74E
:100CD0001BFA6043D9E70448D7E7C04674230008ED
:100CE0000010024000127A00006CDC0270B50400B3
:100CF0000D00002800D189E0464B1A6801231340FB
:100D00008B420BD243490B68012293432B430B6068
:100D10000B681A40AA4201D0012078E023689A07A4
:100D20000ED55B0705D53C4A5168E023DB000B4339
:100D30005360394A5368F0218B43A1680B435360D9
:100D40002368DB0735D56368012B09D0022B24D03B
:100D5000032B28D0304A1268920705D4012056E0B0
:100D60002D4A1268920353D52B494A6803208243C7
:100D700013434B60FFF796FA0600274B5B680C2283
:100D80001A4063689B009A4213D0FFF78BFA801BCE
:100D9000224B9842F1D9032039E01F4A1268920190
:100DA000E2D4012033E01C4A526BD203DCD4012090
:100DB0002DE0184B1A6801231340AB420BD915499B
:100DC0000B68012293432B430B600B681A40AA4225
:100DD00001D001201BE023685B0706D50E4A53684B
:100DE0000F490B40E1680B435360FFF735FF0A4B97
:100DF0005A6812090F2313400A4AD35CD8400A4BA1
:100E000018600020FFF70CFA002000E0012070BD00
:100E10000120FCE70020024000100240881300007F
:100E2000FFF8FFFFA823000808000020014B186806
:100E30007047C0460800002010B5FFF7F7FF044BCD
:100E40005A68120A07231340024AD35CD84010BDE7
:100E500000100240B823000830B5036A0122934312
:100E60000362036A426884697325AC430D682C43AE
:100E70000225AB438D682B43114DA84205D0114D7F
:100E8000A84202D0104DA84205D10825AB43CD6839
:100E90002B430425AB430A4DA84205D0094DA84277
:100EA00002D0094DA84205D1084D2A404D692A4378
:100EB0008D692A43426084614A684263036230BD9F
:100EC000002C01400044014000480140FFFCFFFFAE
:100ED00070B5036A184A13400362036A4268C46922
:100EE0007325AC430E682643144C23408C682402BF
:100EF0002343134CA04216D0114CA04205D0114CF4
:100F0000A04202D0104CA04207D1104C14404A69B4
:100F1000120122438C6925012A434260C6614A6856
:100F2000C263036270BD0A4C1C40CB681B022343A2
:100F3000084C2340E0E7C046FFFEFFFFFFFDFFFF38
:100F4000002C01400044014000480140FFCFFFFF5A
:100F5000FFF7FFFFFFFBFFFF30B5036A114A1340A5
:100F60000362026A4368C4690F4D2C400D682D026C
:100F70002C430E4D15408A6812032A430C4DA8429B
:100F800005D00C4DA84202D00B4DA84204D10B4D08
:100F90002B404D69AD012B434360C4614B68036432
:100FA000026230BDFFEFFFFFFF8CFFFFFFDFFFFF9F
:100FB000002C01400044014000480140FFBFFFFFFA
:100FC00030B5036A046A0125AC4304628469EF35D5
:100FD000AC43120122430A24A343194382610162F4
:100FE00030BD000030B5036A1024A3430362846956
:100FF000036A054D2C4012032243A024A343090198
:1010000019438261016230BDFF0FFFFF0B00816851
:101010007022914319430723194381607047704739
:1010200010B5446A3D230122E254636A83420BD027
:10103000A36A834210D0E36A834210D0236B8342B9
:1010400004D10823237701E001232377200001F056
:1010500009F80023237710BD02232377F6E7042342
:101060002377F3E710B5446A3D230122E254636A13
:1010700083420BD0A36A834210D0E36A834210D02C
:10108000236B834204D10823237701E001232377D4
:10109000200000F09FFF0023237710BD0223237759
:1010A000F6E704232377F3E7704710B5406A3D2342
:1010B0000122C254FFF7F8FF10BD000003681E4A6A
:1010C000904206D08022D205904202D01B4A904224
:1010D00003D1702293434A681343174A90420FD0BA
:1010E0008022D20590420BD0144A904208D0144A74
:1010F000904205D0134A904202D0134A904203D145
:10110000124A1340CA681343802293434A69134327
:1011100003608B68C3620B688362074B984205D0FB
:10112000084B984202D0084B984201D10B690363E7
:10113000012343617047C046002C01400004004079
:10114000002000400044014000480140FFFCFFFF38
:1011500070B5041E14D03D23C35C002B0AD03D257E
:1011600002236355211D2068FFF7A8FF0123635563
:10117000002070BD3C330022C25400F0DFFFEEE7D8
:101180000120F6E770B5041E14D03D23C35C002B8C
:101190000AD03D2502236355211D2068FFF78EFFED
:1011A00001236355002070BD3C330022C254FFF779
:1011B00036FFEEE70120F6E770B5036A102293438D
:1011C0000362036A42688469164D2C400D682D0243
:1011D00025432024A3438C6824012343124CA042BE
:1011E00016D0114CA04205D0104CA04202D0104C99
:1011F000A04207D10F4C14404A69920022438C69E7
:10120000A6003243426085614A688263036270BD12
:101210008024A3431C00CB681B0123434024A34329
:10122000DFE7C046FF8CFFFF002C01400044014077
:1012300000480140FFF3FFFF70B504000D003C23A0
:10124000C35C012B69D03C230121C154013301311E
:10125000C154042A37D019D9082A4AD00C2A2AD1D5
:1012600029000068FFF778FE2268D16980231B01FE
:101270000B43D3612268D36929490B40D3612168AC
:10128000CB692A6912021343CB6114E0002A12D100
:1012900029000068FFF7E0FD2268936908210B43ED
:1012A00093612268936904398B439361226893693F
:1012B00029690B4393613D230122E254013B002243
:1012C000E254002070BD29000068FFF775FF226816
:1012D000916980231B010B43936122689369104934
:1012E0000B40936121688B692A69120213438B6159
:1012F000E1E729000068FFF7EBFD2268D3690821C8
:101300000B43D3612268D36904398B43D3612268CC
:10131000D36929690B43D361CDE70220D2E7C046E8
:10132000FFFBFFFF30B58468034D2C401B021A43BE
:1013300011432143816030BDFF00FFFF10B5040061
:101340003C23C35C012B66D03C230122C2540133F1
:101350000132C254026893683048034093600B68BE
:10136000402B4ED015D9602B41D021D9702B2BD0DA
:1013700080229201934232D1CB684A688968206802
:10138000FFF7D0FF226891688023DB010B43936055
:1013900025E0102B07D004D9202B04D0302B02D00D
:1013A0001DE0002B1BD119002068FFF72FFE16E06F
:1013B000502B14D1CA6849682068FFF701FE5021FC
:1013C0002068FFF723FE0AE0CB684A688968206836
:1013D000FFF7A8FF2268936877210B4393603D23B2
:1013E0000122E254013B0022E254002010BDCA68F1
:1013F00049682068FFF7F6FD60212068FFF706FEC8
:10140000EDE7CA6849682068FFF7DAFD40212068E7
:10141000FFF7FCFDE3E70220E8E7C0468800FFFF96
:1014200010B51F23194001248C40036AA3430362B3
:10143000036A8A401A43026210BD000070B50400BE
:101440000D0011003D22825C022A00D193E03D2272
:10145000825C012A1FD0042D5FD026D9082D00D12F
:1014600072E00C2D39D1226B49489062226B4948B9
:10147000D062226B4848106322684032206BFEF72E
:10148000D5FF002800D07EE02268D16880235B0170
:101490000B43D36021E0002903D03D220220A05459
:1014A000D9E7002BF9D0012036E0002D15D1626A72
:1014B00037489062626A3748D062626A3648106381
:1014C00022683432606AFEF7B1FF002855D12268E5
:1014D000D16880239B000B43D36001222900206840
:1014E000FFF79EFF23682D4A934205D02C4A934272
:1014F00002D02C4A934204D1596C802212020A4332
:101500005A642268916807230B40062B3DD013686C
:1015100001210B431360002070BDA26A1C48906239
:10152000A26A1C48D062A26A1B4810632268383243
:10153000A06AFEF77BFF002821D12268D1688023B2
:10154000DB000B43D360C8E7E26A11489062E26AAD
:101550001048D062E26A1048106322683C32E06AA8
:10156000FEF764FF00280CD12268D16880231B019C
:101570000B43D360B1E70220CEE70120CCE7012086
:10158000CAE70120C8E70120C6E70020C4E7C0463B
:101590002110000865100008AB100008002C014065
:1015A000004401400048014070B504000D000429CA
:1015B00038D00CD908293ED00C2912D10268D36842
:1015C00028490B40D360006BFEF76BFF09E0002950
:1015D00007D10268D36824490B40D360406AFEF704
:1015E00060FF002229002068FFF71AFF23681F4AC6
:1015F000934229D01E4A934226D01E4A934223D0BA
:101600002368196A1C4A114207D1196A1B4A114200
:1016100003D11A6801218A431A603D230122E25452
:10162000002070BD0268D36815490B40D360806A02
:10163000FEF737FFD5E70268D36812490B40D36045
:10164000C06AFEF72EFFCCE7196A0B4A1142D7D1C8
:10165000196A0A4A1142D3D15A6C0B490A405A649A
:10166000CEE7C046FFEFFFFFFFFDFFFF002C01406C
:1016700000440140004801401111000044040000F2
:10168000FFFBFFFFFFF7FFFFFF7FFFFF30B53C23AE
:10169000C35C012B25D03C230122C254013301320B
:1016A000C25403685A689C687025AA430D682A438F
:1016B0005A6003680C4A934206D08022D2059342B6
:1016C00002D00A4A934204D1802294434A681443C8
:1016D0009C603D230122C254013B0022C2540020E1
:1016E00030BD0220FCE7C046002C01400004004051
:1016F00010B5040083680269134342691343C26949
:10170000134301680A686A48024013430B60226869
:10171000536868490B40E1680B435360226AA36930
:101720001A4321688B686448034013438B60236825
:10173000624A93421FD0624A934230D010238022E3
:101740001202E16991422ED0022B00D190E077D9AC
:10175000042B00D198E0082B00D0A1E06368580862
:1017600080231B029C4660446168FEF7CDFC0304A5
:101770001B0C002071E0534B1A6B03231340012B09
:1017800009D0002B05D0022B07D0032B09D0102342
:10179000D5E70023D3E70423D1E70823CFE70023CD
:1017A000CDE70223CBE7022B2ED010D9042B37D064
:1017B000082B42D16368580880235B029C46604432
:1017C0006168FEF7A1FC03041B0C00200DE0002B58
:1017D00033D1FFF731FB400063685B08C0186168D4
:1017E000FEF792FC03041B0C002037491A00103A44
:1017F0008A4258D80F22190091435B08083A1340D7
:101800000B432268D3602FE0636858082F4B9C4637
:1018100060446168FEF778FC03041B0C0020E4E7D9
:10182000FFF71AFA400063685B08C0186168FEF7AA
:101830006BFC03041B0C0020D7E701200023D4E736
:10184000002B2DD1FFF7F8FA63685B081818616860
:10185000FEF75AFC03041B0C00201B491A00103A27
:101860008A4222D82268D36000232366636610BDB3
:1018700063685808164B9C4660446168FEF744FC58
:1018800003041B0C0020E8E7FFF7E6F963685B0838
:1018900018186168FEF738FC03041B0C0020DCE715
:1018A00001200023D9E70120DEE70120DCE7C04664
:1018B000F369FFEFFFCFFFFFFFF4FFFF00380140A8
:1018C0000044004000100240EFFF00000024F4003C
:1018D00000127A00436ADB0706D5026853682C4978
:1018E0000B40816A0B435360436A9B0706D502682D
:1018F000536828490B40C16A0B435360436A5B0736
:1019000006D50268536824490B40016B0B435360B2
:10191000436A1B0706D50268536820490B40416B98
:101920000B435360436ADB0606D5026893681C4983
:101930000B40816B0B439360436A9B0606D502689C
:10194000936818490B40C16B0B439360436A5B0675
:101950000BD50268536814490B40016C0B4353606C
:1019600080235B03026C9A420AD0436A1B0606D5A9
:10197000026853680D490B40816C0B4353607047FC
:10198000026853680A490B40416C0B435360ECE713
:10199000FFFFFDFFFFFFFEFFFFFFFBFFFF7FFFFFDE
:1019A000FFEFFFFFFFDFFFFFFFFFEFFFFFFFF7FF8F
:1019B000FFFF9FFFF0B5C64600B505000C001700FD
:1019C0009846069E2B68DB6923401B1B5A425341F5
:1019D000BB423AD1731CF5D0FEF764FC4346C01AF3
:1019E000B0421FD8002E1DD02B681A685207E9D5C7
:1019F000DA691205E6D5802212011A622A68136894
:101A000014490B4013602A689368A331FF318B435C
:101A1000936020236B67AB67EB6750330022EA5477
:101A2000032013E02A6813680A490B4013602A68F0
:101A30009368A331FF318B43936020236B67AB67BF
:101A400050330022EA54032000E0002004BC9046FA
:101A5000F0BDC0465FFEFFFF30B583B00400002339
:101A6000C367FEF71FFC050023681B681B070CD427
:101A700023681B685B0715D420236367A367503373
:101A80000022E254002003B030BD80210C4B0093B3
:101A90000300002289032000FFF78CFF0028E7D015
:101AA0000320F0E78021064B00932B000022C9039E
:101AB0002000FFF77FFF0028DED00320E3E7C046C9
:101AC000FFFFFF0110B5041E2ED0436F002B21D065
:101AD000242363672268136801218B43136020006D
:101AE000FFF706FE012814D0636A002B18D1226884
:101AF00053680E490B405360226893682A218B4338
:101B000093602268136829390B4313602000FFF7A4
:101B1000A3FF10BD70330022C25400F06BFBD7E767
:101B20002000FFF7D7FEE2E70120F2E7FFB7FFFF53
:101B300082B00A4B59698020C003014359615A6938
:101B400002400092009A5A69802189020A435A6130
:101B50005B690B400193019B02B07047001002408B
:101B600000B583B0094A5169012319435161526993
:101B700013400193019B002200210B20FEF7AAFBDA
:101B80000B20FEF7D9FB03B000BDC0460010024099
:101B900030B58FB0102200210AA800F0D7FB082230
:101BA000002108A800F0D2FB1C22002101A800F0AF
:101BB000CDFB164C8023DB05236000256560A56006
:101BC0003B23E3602561A5612000FFF7C1FA802374
:101BD0005B010A930AA92000FFF7B0FB2000FFF782
:101BE000D1FA0895099508A92000FFF74FFD602359
:101BF0000193029503950595002201A92000FFF7A6
:101C00001BFB200000F0D0FA0FB030BDB800002060
:101C100010B50948094B036096231B02436000235B
:101C20008360C36003610C2242618361C36103620C
:101C30004362FFF747FF10BDF8000020004400405A
:101C400000B593B03022002106A800F07FFB1022DF
:101C5000002101A800F07AFB202305931F3B0D9380
:101C600005A8FEF759FD07230193043B02930023C7
:101C700003930493012101A8FFF738F813B000BDC6
:101C800010B584B0002A00D1E1E0531C01AC2380E0
:101C900053B2002B37DB23885B0059430912C9B2CA
:101CA0000B236B4419704300C01843009BB2694674
:101CB0004B804B88DBB203A803700378013368467E
:101CC000CB8006304B88DB052AD401880B236B447C
:101CD0001B784B431B12DBB20A2169440B700B23A8
:101CE0006B441B785B08D21AD2B209236B441A707A
:101CF0006B4602331B881B0A042B00D994E09B001F
:101D0000544AD3589F4601AB1C88640080239B0033
:101D10001B1B59430912C9B20B236B441970C2E74C
:101D20006B46D98880235B00591AF53B6B441B78BE
:101D30004B431B12DBB20A2169440B70CFE70B2324
:101D40006B441B78DBB20F226A4413700A236B4486
:101D50001B78DBB20E226A4413700D236B44002201
:101D60001A700F236B441B7809226A441078C0183C
:101D700000040E236B44197813785B181B02184378
:101D80000D236B44197813785B18184304B010BD09
:101D90000A236B441B78DBB20F226A4413700B23B7
:101DA0006B441B78DBB20E226A4413700D236B4424
:101DB00000221A70D5E70F236B4400221A700B2300
:101DC0006B441B78DBB20E326A4413700A236B44F7
:101DD0001B78DBB20D226A441370C2E70F236B44F9
:101DE00000221A700A236B441B78DBB20E326A445D
:101DF00013700B236B441B78DBB20D226A44137003
:101E0000AFE70A236B441B78DBB20F226A441370DE
:101E10000E236B4400221A700B236B441B78DBB239
:101E20000D326A4413709CE70B236B441B78DBB2C2
:101E30000F226A4413700E236B4400221A700A2387
:101E40006B441B78DBB20D326A44137089E70020C3
:101E50009CE7C0469423000870B5FEF707FAFFF729
:101E6000EFFEFFF765FEFFF77BFEFFF791FEFFF742
:101E7000CFFE00251CE0A0002018400020182818E4
:101E8000C0B27F22FF21FFF7FBFE010C020AC3B2A2
:101E9000D2B2C9B2200000F00FF80134E4B2052C30
:101EA000E9D90135EDB200F01BF80A20FEF700FA7F
:101EB0000024F4E77047000010B544002018B02457
:101EC0006243120A054C2254421CA15402301A01EA
:101ED000D31A1A011212225410BDC0462800002045
:101EE00010B5394B5B69002B16D1384921228A5C29
:101EF000012A24D0002305E0334AD21800211176AC
:101F00000133DBB22F2BF7D92F4B00225A6100216E
:101F10002F48FFF749FB10BD0023F3E7132016E01D
:101F200013201CE0132024E013202CE0132034E0C5
:101F3000132118002830244A121811760133072B78
:101F400036D8214A12789A401206E7D526201E4A32
:101F5000D118087652789A401206E1D526201A0048
:101F6000083219498A1810768A789A401206D9D50B
:101F700026201A00103214498A181076CA789A401E
:101F80001206D1D526201A0018320F498A18107669
:101F90000A799A401206C9D526201A0020320A4929
:101FA0008A1810764A799A401206C1D52621C0E7D0
:101FB000054C22001832302300210548FFF73EFA75
:101FC00002236361A7E7C0462800002074000020B8
:101FD000B800002030B5224B586905282DD90728B4
:101FE00030D8002335E0132512E0132519E0132122
:101FF0001C0010341A4A121911760133072B1ED80F
:10200000420012181649895C99400906EBD526252D
:102010001349CC182576541C095D99400906E4D56E
:102020002625190008310E4C61180D760232A25C8B
:102030009A401206DBD52621DAE70023DEE70130DD
:10204000074B586130BD064AD21800211176013382
:10205000DBB2172BF7D90130014B5861F2E7C046CC
:102060002800002070B5274B586905282FD907286C
:102070003FD8182337E0132512E013251BE0132166
:102080001C0028341F4A121911760133072B20D85F
:10209000420012181B49895C99400906EBD5262598
:1020A00019001831174C61180D76511C615C99406C
:1020B0000906E2D5262519002031124C61180D764B
:1020C0000232A25C9A401206D9D52621D8E7002315
:1020D000DCE701300B4B586170BD0A4AD218002171
:1020E00011760133DBB22F2BF7D90130054B586144
:1020F000F2E7044B00225A6100210348FFF754FA2B
:10210000EAE7C04628000020B800002082B00A4B51
:10211000996901221143996199690A400092009AD4
:10212000DA69802149050A43DA61DB690B400193D2
:10213000019B02B07047C0460010024010B582B04B
:1021400004008023DB0502689A4201D002B010BD72
:10215000124AD16901231943D161D2691340019315
:10216000019B0F480F4B03601023436000238360E3
:102170008022C2608132FF32026143612033836179
:1021800080239B01C361FEF729F9002803D1044B8A
:1021900063625C62DAE7FFF78DFEF8E70010024049
:1021A000740000205800024010B586B004001422CC
:1021B000002101A800F0CAF822688023DB059A42BA
:1021C00001D006B010BD0A4A516980208002014347
:1021D0005161536903400093009B01230193013334
:1021E00002930593902001A9C005FEF7D5F9E8E711
:1021F0000010024010B588B004001422002103A88A
:1022000000F0A4F82268124B9A4201D008B010BD29
:10221000104BD969802292021143D961D9691140CA
:10222000019101995969114359615B691A40029200
:10223000029B094B03930223049301330693023B51
:102240000793902003A9C005FEF7A6F9DEE7C04674
:102250000044004000100240048000007047FEE788
:102260007047704710B5FEF711F810BD10B5024861
:10227000FEF73CF910BDC046740000207047000016
:102280001348854613480168090E134A914205D147
:102290001248134901601348134901601348144957
:1022A000144A002302E0D458C4500433C4188C42AA
:1022B000F9D3114A114C002301E013600432A24209
:1022C000FBD3FFF7DBFF00F01DF8FFF7C5FDFEE7CE
:1022D00000180020040000001F0000001810024039
:1022E000010000000000014000000000000000208C
:1022F0000C000020C82300080C00002078010020FA
:10230000FEE7000070B500260C4D0D4C641BA410B8
:10231000A64209D1002600F021F80A4D0A4C641BA0
:10232000A410A64205D170BDB300EB589847013602
:10233000EEE7B300EB5898470136F2E7C0230008F8
:10234000C0230008C0230008C4230008030012189B
:10235000934200D1704719700133F9E7F8B5C046D0
:10236000F8BC08BC9E467047F8B5C046F8BC08BC2F
:042370009E467047CE
:1023740002030405060708090A0B0C0D0E0F1010C2
:102384000102030405060708090A0B0C0D0E0F10C1
:102394003E1D0008901D0008B61D0008DC1D000845
:1023A400021E0008000000000000000001020304F7
:0C23B400060708090000000001020304F5
:0423C000E900000828
:0423C400C10000084C
:0C23C800010000000400000000127A0078
:04000005080022814C
:00000001FF
