:020000040800F2
:1000000000180020BD280008912800089528000845
:1000100000000000000000000000000000000000E0
:100020000000000000000000000000009928000807
:1000300000000000000000009D280008A128000822
:100040003D2900083D2900083D2900083D290008F8
:100050003D2900083D2900083D2900083D290008E8
:100060003D2900083D2900083D290008A92800086D
:100070003D2900083D2900083D2900083D290008C8
:100080003D29000800000000000000003D29000894
:10009000000000003D2900083D2900083D29000816
:1000A000000000003D2900083D2900083D29000806
:1000B0003D290008000000003D2900083D290008F6
:1000C00010B5064C2378002B07D1054B002B02D02E
:1000D000044800E000BF0123237010BD0C00002085
:1000E0000000000098290008044B10B5002B03D035
:1000F0000349044800E000BF10BDC04600000000F6
:100100001000002098290008002243088B4274D375
:1001100003098B425FD3030A8B4244D3030B8B4208
:1001200028D3030C8B420DD3FF22090212BA030C11
:100130008B4202D31212090265D0030B8B4219D3F2
:1001400000E0090AC30B8B4201D3CB03C01A524112
:10015000830B8B4201D38B03C01A5241430B8B425A
:1001600001D34B03C01A5241030B8B4201D30B0343
:10017000C01A5241C30A8B4201D3CB02C01A52416A
:10018000830A8B4201D38B02C01A5241430A8B422D
:1001900001D34B02C01A5241030A8B4201D30B0216
:1001A000C01A5241CDD2C3098B4201D3CB01C01A30
:1001B000524183098B4201D38B01C01A524143093A
:1001C0008B4201D34B01C01A524103098B4201D328
:1001D0000B01C01A5241C3088B4201D3CB00C01A95
:1001E000524183088B4201D38B00C01A524143080D
:1001F0008B4201D34B00C01A5241411A00D2014632
:10020000524110467047FFE701B5002000F006F8A4
:1002100002BDC0460029F7D076E770477047C04658
:1002200070B50500FA200D4C80002178FFF76CFFB7
:100230000B4B01001868FFF767FF00F07FF8012300
:10024000002801D1032D01D9180070BD002229001A
:10025000013800F03BF865600023F5E7000000205E
:10026000080000201021064A10B5136800200B4337
:100270001360FFF7D5FF02F063FA002010BDC046FF
:1002800000200240034A044B11681B785B1813607E
:100290007047C0468C00002000000020014B186809
:1002A0007047C0468C00002070B50400FFF7F6FFD1
:1002B0000500631C02D0044B1B78E418FFF7EEFF27
:1002C000401BA042FAD370BD00000020FF22032390
:1002D00030B51400C5B22B40DB009C4089010A40B8
:1002E000E4439A4000280BDB0C4B80089C46C0235B
:1002F000800060449B00C1580C402243C25030BD76
:100300000F2307492B408C46083B9B089B00634406
:10031000D9690C402243DA61F1E7C04600E100E010
:1003200000ED00E0002805DB1F2318401E3B834042
:10033000014A13607047C04600E100E00A4A431ECC
:10034000012093420ED8C021084A09485360036A2D
:1003500009061B021B0A0B43036200230020936063
:10036000073313607047C046FFFFFF0010E000E056
:1003700000ED00E070B5041E27D02125022343556F
:100380000068134A0368A1681A4063680B43E16878
:100390000B4321690B4361690B43A1690B43E1697D
:1003A0000B43134303600B4B14219C466044FFF73F
:1003B000ABFE094B0122E363002380002064002090
:1003C000A36362551F32A35470BD0120FCE7C046F1
:1003D0000FC0FFFFF8FFFDBF00000240F0B5202571
:1003E000445D012C29D0012421264455845DE4B2CA
:1003F000012C1ED11E3D8555002585630568076CBF
:100400002E68A643BC402E60C66B74606B60436868
:10041000102B14D0C36AA960EA60002B14D00E22FE
:100420002B6813432B60012200202B6813432B60A1
:10043000F0BD002343550220FAE70220F8E7C36A23
:10044000AA60E960002BEAD10A222B6813432B60D3
:100450002B68063A93432B60E5E7C046212370B52D
:10046000C25C022A03D01D3B8363012070BD0E24B1
:100470000268056C1168A1431160012114688C4366
:1004800014600C00AC40C26B5460C15400222023A5
:10049000C254436B002B02D098470020E6E70020AF
:1004A000E4E7C046F8B504242600036CC56B9E4003
:1004B0002A6801680F6832420DD03C420BD00B68AD
:1004C0009B0602D40B68A3430B60C36A6E60002BCB
:1004D00000D09847F8BD022426009E40324214D036
:1004E0003C4212D00B689B0606D40A220B68934349
:1004F0000B602123093AC254202300226E60C254AB
:10050000836A002BE6D09847E4E7082426009E4043
:100510003242DFD03C42DDD00A680634A2430A6092
:10052000012211009940212369608263C254002294
:10053000013BC254036B002BCCD09847CAE7C0469E
:10054000F0B54E46DE4657464546E0B58946096851
:1005500085B0002979D0684B00229B46674B8A46BC
:1005600098460125544695402C40009469D04B464E
:10057000596810230F009F430197022F6CD0036826
:1005800056009C460323B3406446DB431C402700CF
:1005900003240C40B440A4463C0067463C43019F02
:1005A0000460013F012F00D873E0C5682B404D4621
:1005B000AD68B5402B43C36080235B05194240D032
:1005C0005B4601245D4603260F279B6916402343A3
:1005D000AB61AB69B6002340494CB740A4469024B8
:1005E0000393039B93089B0063449D68E405BD430C
:1005F000A0420AD0434FB84200D178E0424FB842FF
:1006000000D170E00527B7403D439D604346009C04
:100610001B68E543CC034ED444462B4023606368FB
:100620008C034FD444462B406360A368CC0250D463
:1006300044462B40A360E368890251D42B404146D5
:10064000CB6053460132D3408BD105B03CBC9046C1
:100650009946A246AB46F0BD07260F241640B600C9
:10066000B440D3089B00C3181F6AA7434C462469B3
:10067000B44026003E431E6203235600B340DB43D2
:1006800007681F40BC4603270F40B7406446274316
:10069000076087684C461F40BC46E7686446B74021
:1006A0002743012487604768AF430D0925409540E3
:1006B0003D43456079E7009C2343444623606368DB
:1006C0008C03AFD5009C234344466360A368CC02EF
:1006D000AED5009C23434446A360E3688902ADD5B0
:1006E00000990B43ABE70227B7403D438DE7012458
:1006F000B440254389E7C046001002400004014091
:10070000000001400004004800080048F0B5CE4653
:10071000474680B5040083B0002800D1F6E00368A6
:10072000DA0735D50C21C04842680A40042A00D1B6
:100730005EE142681140082900D150E16368012B55
:100740000FD0002B00D17DE1052B00D1EDE1B64BA0
:10075000B6491A680A401A601A68B5490A401A6010
:1007600005E08023B04A5B0211680B431360FFF77A
:1007700095FD80250700AC4EAD0205E0FFF78EFD2C
:10078000C01B642800D94DE133682B42F6D02368A2
:100790009A0744D41A0717D5E369A34D002B00D15B
:1007A000D3E001226B6A022613436B62FFF776FDEA
:1007B000070005E0FFF772FDC01B022800D931E1F8
:1007C0006B6A1E42F6D023685A0771D58022964B79
:1007D0005205D9690025114207D1D9690135114364
:1007E000D961DB691A400192019B8026914F760006
:1007F0003B68334200D105E1A368012B3AD0002BBE
:1008000000D138E1052B00D1D3E10121864B1A6AD2
:100810008A431A621A6A03318A431A622EE00C2252
:1008200081494868024200D17FE048680240082AB6
:1008300000D171E0E368002B00D136E101227A4F4C
:1008400002253B6813433B60FFF728FD060005E0E7
:10085000FFF724FD801B022800D9E3E03B681D421E
:10086000F6D0F8213A6823698A43DB0013433B60E2
:1008700023688FE76C490A6A13430B62FFF70EFD8A
:100880006D4B8146684F0226984606E0FFF706FD4D
:100890004B46C01A404500D9C4E03B6A1E42F5D021
:1008A000012D04D1604A6549D3690B40D3612368A7
:1008B000DA0612D56269012A00D19FE1053200D023
:1008C00007E10420F82558494A6B82434A63486B84
:1008D000A269A843D20002434A639B065ED50C225C
:1008E00051494B6813400C2B09D04B681A40082A19
:1008F0003ED1C0224B6852021340934238D14A4B3A
:100900005B6BDB034AD5236A012B47D0012003B080
:100910000CBC90469946F0BD4A68C02149020A4085
:10092000802109028A4200D084E73F4A1268920778
:1009300002D5E268012AE9D1F8253B48226901681D
:10094000D200A9430A43026024E701226B6A02260F
:1009500093436B62FFF7A2FC070004E0FFF79EFCE5
:10096000C01B02285ED86B6A1E42F7D123682BE7B2
:10097000236A2D4D002B00D1C3E080266B6B7602DD
:1009800033436B63FFF78AFC070004E0FFF786FC44
:10099000C01B022846D86B6B3342F7D0636A002B2A
:1009A0001BD00C22204D69680A40082A00D10AE1B8
:1009B000022B00D1C5E02B68214A802413402B6014
:1009C000FFF76CFCA404060004E0FFF767FC801B43
:1009D000022827D82B682342F7D1002097E7C021AF
:1009E000426849020A40802149028A4200D0A5E6B5
:1009F0000D4A1268920300D4CAE66268002A00D049
:100A0000C6E683E73B6833433B60FFF747FC80461D
:100A10003B68334200D0EFE6FFF740FC4346C01A84
:100A20006428F5D9032072E700100240FFFFFEFFA3
:100A3000FFFFFBFF0070004088130000FFFFFFEF87
:100A4000FFFFFFFE7D4D7E4A2B68802613402B6002
:100A50002B687C4AB60213402B60FFF71FFC07008F
:100A600004E0FFF71BFCC01B6428DBD82B68334273
:100A7000F7D123688CE60122704E0227336A934334
:100A80003362336A033293433362FFF707FC6E4BE2
:100A90008146984605E0FFF701FC4B46C01A4045E9
:100AA000C0D8336A1F42F6D1FAE60122634D02260E
:100AB0002B6893432B60FFF7F1FB070004E0FFF77F
:100AC000EDFBC01B0228ADD82B681E42F7D123686E
:100AD00060E60422594D02266B6B13436B636B6B0C
:100AE000033A93436B63FFF7D9FB070004E0FFF77A
:100AF000D5FBC01B022895D86B6B1E42F7D123682B
:100B0000EBE66B6B4E4A802613406B63FFF7C6FB28
:100B10007602070005E0FFF7C1FBC01B022800D9E1
:100B200080E76B6B3342F6D138E78022434BD20229
:100B300019680A431A608022196852020A431A602F
:100B400015E62B68414A802613402B60FFF7A6FB71
:100B5000B604070005E0FFF7A1FBC01B022800D97F
:100B600060E72B683342F6D10F22EB6A9343226B86
:100B70001343EB62A16AE36A6A680B433449802439
:100B80000A4013436B6080232A685B0413432B6085
:100B9000FFF784FB294D0600A40405E0FFF77EFB68
:100BA000801B022800D93DE72B682342F6D00020A5
:100BB000ADE60421214B1A6A0A431A621A6A033904
:100BC0000A431A625AE6012B00D19FE6C0226B68E5
:100BD000A06A5202E96A1A40824200D096E60F22C9
:100BE0000A40216B8A4200D090E6F0208003034047
:100BF000E06A181A431E9841C0B288E604210F4DDE
:100C000002266B6B0B436B636B6B1A436A63FFF7D4
:100C100045FB070005E0FFF741FBC01B022800D998
:100C200000E76B6B1E42F6D0F8216A6BA3698A431A
:100C3000DB0013436B6323684FE6C046001002409D
:100C4000FFFFFEFFFFFFFBFF88130000FFFFFFFE1B
:100C5000FF7FC2FFF0B5CE46474680B5040089B09D
:100C60000D0000280DD001235B490A681A40AA42F2
:100C70000DD20A689A432A430A600A681340AB42BD
:100C800005D0012009B00CBC90469946F0BD236800
:100C90009A070ED55A0705D5E0225049D200486878
:100CA00002434A60F0204D494A688243A0680243EB
:100CB0004A60DB0724D56368484A012B62D0022BC7
:100CC0007BD0032B00D181E012689207D9D5032194
:100CD000424E0C2772688A4313437360FFF7DEFAB3
:100CE0003F4B8146984605E0FFF7D8FA4B46C01ABD
:100CF000404560D8726863683A409B009A42F3D1DD
:100D00000121354A13680B40AB4205D913688B4368
:100D1000136013681942B4D123685B0706D52F4AC4
:100D2000304953680B40E1680B43536069462E4BD2
:100D30000A00180070C870C200681033106004AA5E
:100D4000100070CB70C01B68244D03600C206B68D2
:100D5000184008281AD00C3843425841234B4042CF
:100D60001840234B9C4660441C4B224A5B681B0680
:100D70001B0FD35CD840204B18600020FFF750FABF
:100D800000207FE712689203A1D47AE70F209C0C21
:100D900004400C5DE96A0840115CC02280205202C8
:100DA00013404002834201D093420AD01048FFF71B
:100DB000ABF96043D8E7032064E71268920186D458
:100DC0005FE70E48FFF7A0F96043CDE7526BD2030F
:100DD00000D57CE755E7C0460020024000100240E5
:100DE00088130000FFF8FFFFB0290008005A6202D4
:100DF00000127A00FC29000808000020006CDC02C8
:100E000070B588B069461C4B0A00180070C870C2E3
:100E100000681033106004AA100070CB70C01B680B
:100E2000164D03600C206B68184008280AD00C3857
:100E300043425841124B40421840124B9C4660447A
:100E400008B070BD0F209C0C04400C5DE96A08409E
:100E5000115CC0228020520213404002834201D024
:100E6000934204D00748FFF74FF96043E8E706488C
:100E7000FFF74AF96043E3E7B02900080010024099
:100E8000005A620200127A00006CDC02044B054A30
:100E90005B685B055B0FD35C034A1068D840704702
:100EA000001002400C2A00080800002070B5041E43
:100EB00044D03D23C35CDBB2002B21D03D23022272
:100EC000294EE2542268A5691368E0686168B2425D
:100ED00036D08026F605B24217D0244EB24214D046
:100EE000234EB2423BD0234EB2422DD0224EB242CC
:100EF0002AD08026B3432B431360D062916217E05F
:100F00003C22835401F034FCD8E77026B343A66832
:100F100033431A4E3340266933438026B3432B4371
:100F20001360154BD06291629A4201D163691363D9
:100F3000012353613D220020A35470BD0120FCE732
:100F40007026B343A66833430C4E334026693343BF
:100F50008026B3432B431360D0629162E6E7074ECD
:100F6000334026693343C4E7002C014000040040AD
:100F7000002000400044014000480140FFFCFFFF0A
:100F80007047C04670B5041E44D03D23C35CDBB23D
:100F9000002B21D03D230222294EE2542268A5696C
:100FA0001368E0686168B24236D08026F605B24226
:100FB00017D0244EB24214D0234EB2423BD0234E1F
:100FC000B2422DD0224EB2422AD08026B3432B43C8
:100FD0001360D062916217E03C228354FFF7D0FF88
:100FE000D8E77026B343A66833431A4E33402669C8
:100FF00033438026B3432B431360154BD062916279
:101000009A4201D163691363012353613D22002099
:10101000A35470BD0120FCE77026B343A668334398
:101020000C4E3340266933438026B3432B43136071
:10103000D0629162E6E7074E334026693343C4E746
:10104000002C01400004004000200040004401400A
:1010500000480140FFFCFFFF70B50D0011003D226C
:101060000400805C022800D17CE0A25C012A5AD0F6
:101070002268042D5FD0042D34D9082D00D173E0EF
:101080000C2D11D1206B424E40328662414EC66219
:10109000414E0663FFF7A2F9002861D18023226840
:1010A0005B01D1680B43D3601F231D401E3BAB4047
:1010B000116A99431162116A0B431362374B9A42CA
:1010C00025D0374B9A4222D0364B9A421FD0072365
:1010D00091680B40062B24D00121002013680B439C
:1010E000136070BD002DDFD1606A294E34328662F4
:1010F000284EC662284E0663FFF770F900282FD1EC
:10110000802322689B00D1680B43D360CCE7802307
:10111000516C1B020B435364072391680B40062B51
:10112000DAD10020DDE7002918D03D220220A054AA
:101130002268042D9FD1A06A154E38328662154E62
:10114000C662154E0663FFF749F9002808D18023CF
:101150002268DB00D1680B43D360A5E7002BE4D005
:101160000120BEE70220BCE7E06A094E3C328662FD
:10117000084EC662084E0663FFF730F90028EFD12B
:10118000802322681B01D1680B43D3608CE7C046E3
:101190002D1600086D160008B1160008002C01403D
:1011A000004401400048014070B5036805000C0090
:1011B000042950D044D908292CD00C2907D1DA6849
:1011C0002949006B0A40DA60FFF748F92B681F21B4
:1011D0000C401E39A1401A6A8A431A621A6A1A62BE
:1011E000224A93421FD0224A93421CD0214A934262
:1011F00019D0196A204A114207D1196A1F4A1142AF
:1012000003D101211A688A431A603D23012200207C
:10121000EA5470BDDA681A49C06A0A40DA60FFF71A
:101220001DF92B68D3E7196A134A1142E1D1196AF3
:10123000124A1142DDD15A6C12490A405A64D8E769
:101240000029C4D1DA681049406A0A40DA60FFF721
:1012500005F92B68BBE7DA680C49806A0A40DA6056
:10126000FFF7FCF82B68B2E7FFEFFFFF002C01400F
:1012700000440140004801401111000044040000F6
:10128000FFF7FFFFFF7FFFFFFFFDFFFFFFFBFFFFFC
:101290003C23F0B5C45C012C00D173E0012502248D
:1012A000C5540133C454042A00D199E03CD9082A1A
:1012B0006AD00C2A30D103687A4C1A6A7A4D2240DF
:1012C0001A621A6A5F68DC692C400D682D0225439A
:1012D000764C14408A6812032243754CA34200D115
:1012E000CCE0744CA34200D1C8E0734CA34200D1BF
:1012F000C4E04C685F60DD611C641A628022DC69B6
:1013000012012243DA61DA696C4C2240DA610A691F
:10131000DC6912022243DA613D230122C254002219
:10132000013BC2540020F0BD002AF5D173270368A9
:101330001A6AAA431A621A6A5E689D69A243BD438B
:101340000F688C683D435A4F2243BB4200D19BE05B
:10135000584CA34200D197E0574CA34200D193E0F0
:101360004C685E609D615C6308241A629A69096931
:1013700022439A619A69043CA2439A619A690A439A
:101380009A61C9E70220CEE7732603684C4C1A6ABB
:101390000F6822401A621C6A5A68DD69B5432F4300
:1013A000484D434E2C408D682D022C43B34246D00D
:1013B000404EB3424AD0404DAB4247D05A604A6893
:1013C000DF61DA631C620824DA6909692243DA61A1
:1013D000DA69043CA243DA61DA690A43DA619BE71D
:1013E00010240368304E1A6A314FA2431A621C6AF5
:1013F0005A689D6935400E6836022E432025AC435D
:101400008D682D012C43BB4228D02A4FBB422DD0E2
:10141000294FBB422AD05A604A689E619A63802253
:101420001C629C69120122439A619A69234C2240F2
:101430009A610A699C69120222439A616CE7224D03
:101440002540CC6824022C431C4D2C401F4E4D6976
:1014500016408A692A4312013243AFE78025AC4324
:101460002500CC6824012C434025AC43184F4D691E
:1014700017408A692A4392003A43CCE7154E4C69DB
:101480003E40A701374334E70824A243CC688F6964
:1014900022430424A243104C34404E693E43264369
:1014A0005EE7C046FFEFFFFFFF8CFFFFFFDFFFFFA0
:1014B000002C01400044014000480140FFFBFFFFB9
:1014C000FFFEFFFFFFFDFFFFFFF7FFFFFFCFFFFF67
:1014D000FFF3FFFFFFBFFFFFFFFCFFFF3C2370B5E3
:1014E000C25C012A58D001240222C4540133C254E0
:1014F00003684B4D9A682A409A600A68402A00D1D6
:1015000074E04BD9602A2ED057D9702A1BD0802482
:10151000A401A2420FD19A68424C4D6814408A68D7
:10152000C9682A4309020A4322439A6080229968C3
:10153000D2010A439A603D230122C2540022013B9A
:10154000C254002070BD9A68364C4D6814408A68B9
:10155000C9682A4309020A43772122439A609A689C
:101560000A439A60E7E710251C6A4A68AC43C968D9
:101570001C629D692C4E090335402943A0251C6A35
:1015800099617021AC43120122431A629A688A431E
:1015900009390A439A60CEE70220D3E7102A04D023
:1015A0003BD9202A01D0302AC5D170249968A143A3
:1015B000693C22430A439A60BDE7502ABBD14D687B
:1015C000CA68196A1E6A1201A6431E62F0269C6947
:1015D000B44322430A24A14329439A61196270212A
:1015E0009A688A4319390A439A60A4E74D68CA6821
:1015F000196A1E6A1201A6431E62F0269C69B44352
:1016000022430A24A14329439A61196270219A68EE
:101610008A4329390A439A608DE7002AC5D08AE7B0
:101620008800FFFFFF00FFFFFF0FFFFF3D220123A8
:1016300010B5446AA354626A82420FD0A36A8342FF
:1016400011D0E36A83420BD0236B834205D0200084
:1016500000F03EFE0023237710BD08232377F6E732
:1016600004232377F3E702232377F0E73D220123C6
:1016700010B5446AA354626A82420FD0A36A8342BF
:1016800011D0E36A83420BD0236B834205D0200044
:1016900000F0B4FC0023237710BD08232377F6E77E
:1016A00004232377F3E702232377F0E77047C0464C
:1016B0003D23012210B5406AC254FFF7F7FF10BD69
:1016C0003C2330B5C25C012A23D001227025C254CC
:1016D00001330132C25403685A689C68AA430D68FA
:1016E0002A435A600C4A934206D08022D205934284
:1016F00002D00A4A934204D1802294434A68144398
:101700009C603D230122C2540022013BC2540020B0
:1017100030BD0220FCE7C046002C01400004004020
:10172000436A30B5DA0706D50168284C4A6822407A
:10173000846A22434A609A0706D50168244C4A68A5
:101740002240C46A22434A605A0706D50168214CE8
:101750004A682240046B22434A601A0706D5016892
:101760001D4C4A682240446B22434A60DA0606D583
:1017700001681A4C8A682240846B22438A609A0668
:1017800006D50168164C8A682240C46B22438A60E1
:101790005A060AD50168134D4A68046C2A40224350
:1017A0004A6080225203944209D01B0606D5026883
:1017B0000D4953680B40816C0B43536030BD4A6840
:1017C0000A4C2240446C22434A60EEE7FFFFFDFFD3
:1017D000FFFFFEFFFFFFFBFFFF7FFFFFFFEFFFFFAE
:1017E000FFDFFFFFFFFFEFFFFFFFF7FFFFFF9FFFA1
:1017F000F8B5CE464746040080B5002836D0436F82
:10180000002B2ED0242301216367236825691A68E1
:10181000E0698A431A60A26819682A4365692A4305
:10182000904D024329400A431A605A688E49256A3E
:101830000A40E1680A435A60A26999682A438B4DBD
:1018400029400A439A608A4A934211D0894A9342B6
:1018500027D000230120236663660CBC904699467E
:10186000F8BD7022835400F0DFFFCBE70120F4E7DE
:10187000814B1A6B03231340804AD35C80221202EF
:10188000904200D1AEE0022B00D191E000D8E4E01C
:10189000042B42D0082BDCD16368580880231B023C
:1018A00089E080231B02984200D1C3E0FFF7EEFAE3
:1018B000636861685B081818FEF726FC0004000CDA
:1018C00003006F4A103B9342C3D800222368D860BC
:1018D00022666266626A002A4CD15A6869490A40E7
:1018E0002A215A609A688A439A601A6829390A43F9
:1018F0001A600023E367FEF7D1FC236806001A682C
:1019000012070DD41A68520739D4202300226367C6
:10191000A3675033E25400209FE7FFF771FAC7E74F
:10192000594A8027904604229146BF03DD693D4015
:10193000E8D1FEF7B3FC2368801B1A68404542D803
:1019400049461142F2D08022D96912011142EDD0EC
:101950001A621A684D4903200A401A609A68A33136
:10196000FF318A439A6020236367A367E36750339C
:10197000E55472E72000FFF7D3FE2368ADE7424A43
:101980008027904604229146FF03DD693D40BCD18B
:10199000FEF784FC2368801B1A68404513D849462B
:1019A0001142F2D08022D96912011142EDD0CFE765
:1019B00063685808364B9C4661686044FEF7A4FB98
:1019C0000004000C7CE7314903200A401A609A6841
:1019D000A331FF318A439A6020236367A3675033A2
:1019E000E5543AE7022B34D021D9042B2ED0082B12
:1019F00000D02EE76368580880235B029C4661682C
:101A00006044FEF781FB0004000C03001C4A103BFD
:101A1000934200D91DE70F23020000079A43400FAD
:101A2000104300222368D8602266626652E7002BCA
:101A300000D00EE7FFF72AFA636840005B08C01881
:101A40006168FEF761FB0004000CDEE7FFF7D8F9E0
:101A5000F2E7636858080F4BD0E7002B00D125E769
:101A6000F7E6C046F369FFEFFFCFFFFFFFF4FFFF8C
:101A7000003801400044004000100240D029000816
:101A8000EFFF0000FFB7FFFFFFFFFF015FFEFFFF5B
:101A900000127A000024F40000B593B03022002137
:101AA00006A800F071FF1022002101A800F06CFFD1
:101AB000202305A805931F3B0D93FEF727FE072360
:101AC0000193043B02930023012101A80393049393
:101AD000FFF7C0F813B000BDF0B5DE4657464E46DE
:101AE0004546E0B595B0FEF7BDFBFFF7D5FF80207A
:101AF0008F4BC00359690DAC014359615A690025E8
:101B0000024080200492049A59698002014359617D
:101B10005A6902400592059A012259690B20114326
:101B200059615B6900211A4006920022069BFEF76C
:101B3000CDFB0B20FEF7F6FB1022002109A800F0D8
:101B400023FF0822002107A800F01EFF1C2200210D
:101B5000200000F019FF8023764EDB0533603B2325
:101B600030007560B560F3603561B561FFF79EF9CF
:101B7000802309A95B0130000993FFF7AFFC300017
:101B8000FFF700FA07A9300007950895FFF798FDC1
:101B900060230022210030000D936560A56025615F
:101BA000FFF776FB300000F019FE6348634B856059
:101BB000036096231B0243600C23C56005614361EB
:101BC0008561C56105624562FFF712FE002301933E
:101BD00002AB5E1DDD1D80235B009A46019B002742
:101BE00098467F239946802202AB9A839B8B9BB2B7
:101BF0005A005B029B1A1B12DBB2337043465B0038
:101C000043445B009BB22380238802AADBB213719A
:101C100013790133938252462388134275D102AB64
:101C20009A8A337853431B12DBB202AA93714A4655
:101C300033785B08D31ADBB22B7023881B0A042B82
:101C400069D83F4A9B00D3589F46002202AB5A7086
:101C50009B7902AADBB293703378DBB2D37002AB0C
:101C600059782B789B4602AB9B782A785944944646
:101C700002AAD278634428781B0209041218194377
:101C80001143CBB20A0A090C3800D2B2C9B200F033
:101C9000FBF8434601370B33DBB2FFB29846082FFF
:101CA000A1D1019B0133DBB2019300F0FFF80120C9
:101CB000FEF7FAFA92E7002202AB5A70337802AAD2
:101CC000DBB293709379DBB2D370C8E702AB9B7938
:101CD00002AADBB253703378DBB293701300002298
:101CE000DA70BCE7337802AADBB253709379F3E77A
:101CF00002AB9B7902AADBB25370130000229A70E8
:101D0000337802AADBB2D370A9E7514602AB9A8AB4
:101D100033788A1A86E7337802AADBB2537013004D
:101D200000229A709B7902AADBB2D37097E7C04673
:101D300000100240D40000201401002000440040A4
:101D4000D429000830B5030085B00020002A51D006
:101D5000501C03AC208050B2002851DB208840008A
:101D600041436846C41D58001B180E200912C9B211
:101D70002170694668445B00038003880A25DBB252
:101D80008B718B79802101336D442B80038849004E
:101D90000B4231D1298823784B4309211B12DBB236
:101DA00002AD2B70237869445B08D21AD2B20A7054
:101DB00003881B0A042B54D8314A9B00D3589F46F2
:101DC0006B46D81C002303702A7801ABD2B21A707C
:101DD0006A4624780532E4B2147000780D781B78D6
:101DE0000C78401912781B19097800041B0218435B
:101DF0005218104305B030BD2D882378491BCBE71E
:101E00008020248880006400001BA9E76B46D81C52
:101E100000230370227801ABD2B21A706A462C7884
:101E20000532E4B21470D8E76A462B78D01CDBB2D6
:101E300003702278D2B201AB1A706A4600240532D0
:101E40001470CAE76A462378D01CDBB203702A7884
:101E5000F0E76A462B78D01CDBB20370002201AB9E
:101E6000B5E76A462378D01CDBB2D370002201AB01
:101E70001A706A462C780532E4B21470ADE7C04699
:101E8000E82900087047C04630B5B0246243850099
:101E90000548121242551A01D31A40191B118370BA
:101EA00000234170C37030BD28000020F0B54E46BD
:101EB000DE4657464546E0B54C4E85B0336A002BAA
:101EC00004D121224A498A5C012A12D03000002123
:101ED0002430402200F058FD0023002145483362A1
:101EE000FFF762F905B03CBC90469946A246AB4666
:101EF000F0BD350080211220327837799246727811
:101F000024359146B2789046F278944672790092E0
:101F1000B2790192F2790397029252469A400A40AE
:101F2000544262415242824326322A704A469A40C3
:101F30000A40544262415242824326322A72424649
:101F40009A400A40544262415242824326322A74E5
:101F500062469A400A4054426241202752428243DC
:101F600026322A76039ABB469A400A40544262417E
:101F7000214C5242E418A3445F46824326323A7011
:101F8000009A9A400A40574257417A422827BB4656
:101F9000A3445F46824326323A70019A9A400A402F
:101FA000574257417A423027BB46A3445F4682439B
:101FB00026323A70029A38349A4011420FD02622C3
:101FC000013322700135082BA7D13200402324327F
:101FD00000210848FFF740F80223336282E713220A
:101FE000013322700135082B97D1EEE7280000203D
:101FF00090000020D40000204C000020F8B5DE4600
:1020000057464E464546B14BE0B59A461B6A9B463D
:10201000072B00D94CE152469B00D25C53445F78B9
:102020009878DE7853B2DB4394461222544624213A
:10203000DB179343263363547BB2DB435146DB17F4
:102040009343243126330B7243B2DB43DB179343B4
:1020500026330B7473B2DB43DB17934326330B76C3
:1020600063465A0080231A40541EA24152429046B1
:10207000132244461440A0461324A146C8444446B3
:102080004C707C001C40651EAC4164421440A0466C
:10209000C84444464C7244001C40651EAC41644236
:1020A0001440A046C84444464C7474001C40651E4D
:1020B000AC4164421440A046C84444464C76644651
:1020C000A4001C40651EAC4164421440A046C844B4
:1020D00044468C70BC001C40651EAC4164421440F8
:1020E000A046C84444468C7284001C40651EAC4126
:1020F00064421440A046C84444468C74B4001C405A
:10210000651EAC4164421440A046C84444468C76E7
:102110006446E4001C40651EAC4164421440A04685
:10212000C8444446CC70FC001C40651EAC4164426F
:102130001440A046C8444446CC72C4001C40651EEE
:10214000AC4164421440A046C8444446CC74F400F8
:102150001C40651EAC4164421440A046C84444463D
:10216000CC76644624011C40651EAC416442144098
:10217000A046C84444460C713C011C40651EAC415D
:1021800064421440A046C84444460C7304011C40F9
:10219000651EAC4164421440A046C84444460C75D8
:1021A00034011C40651EAC4164421440A046C84442
:1021B00044460C77644664011C40651EAC41644291
:1021C0001440A046C84444464C717C011C40651E26
:1021D000AC4164421440A046C84444464C73440198
:1021E0001C40651EAC4164421440A046C8444446AD
:1021F0004C7574011C40651EAC4164421440A046FD
:10220000C84444464C776446A4011C40651EAC415A
:1022100064421440A046C84444468C71BC011C4032
:10222000651EAC4164421440A046C84444468C73C9
:1022300084011C40651EAC4164421440A046C84461
:1022400044468C75B40123405C1EA341FF245B42CD
:10225000134013338B776346A446DB0123405C1E97
:10226000A34164465B4213401333CB71FB0123400F
:102270005F1EBB415B4213401333CB73C30123404A
:10228000581E83415B4213401333CB75F301234047
:102290005E1EB3415C465B421A4053461332013422
:1022A000CA771C623CBC90469946A246AB46F8BD34
:1022B000092BF7D850462022243000215C4600F03C
:1022C00063FB534601341C62ECE7C0462800002043
:1022D000F0B5D6464F464646034CC0B5236A9A46EB
:1022E000072B00D917E201E0280000204425AC4666
:1022F0009B00E75CE3185E78D8789A787BB2DB4382
:1023000091461222A4446546DB17934326332B7073
:102310004C25AC4673B2DB43A4446546DB179343BC
:1023200026332B7054254B46AC465BB2DB43A444AA
:102330006546DB17934326332B7043B2DB43DB1731
:102340009343220026335C32137080237A001A40B4
:10235000511E8A4152429446132265461540AC46AE
:102360001325A8463235C444A846A04445466146D4
:10237000297071000D001D40691E8D4169420D00DC
:10238000132115408846AC463A31C4448846A044DF
:10239000414665460D70494649000D001D40691EC5
:1023A0008D4169420D00132115408846AC464231EB
:1023B000C4448846A044414665460D7041000D0066
:1023C0001D40691E8D4169420D001321154088464C
:1023D000AC464A31C4448846A044414665460D7027
:1023E000B9000D001D40691E8D4169420D00132189
:1023F00015408846AC463331C4448846A044414623
:1024000065460D70B1000D001D40691E8D41694289
:102410000D00132115408846AC463B31C444884624
:10242000A044414665460D70494689000D001D4097
:10243000691E8D4169420D00132115408846AC4646
:102440004331C4448846A044414665460D7081002E
:102450000D001D40691E8D4169420D00132115407C
:102460008846AC464B31C4448846A0444146654644
:102470000D70F9000D001D40691E8D4169420D006F
:10248000132115408846AC463431C4448846A044E4
:10249000414665460D70F1000D001D40691E8D41DD
:1024A00069420D00132115408846AC463C31C444B6
:1024B0008846A044414665460D704946C9000D0056
:1024C0001D40691E8D4169420D001321154088464B
:1024D000AC464431C4448846A044414665460D702C
:1024E000C1000D001D40691E8D4169420D00132180
:1024F00015408846AC464C31C4448846A044414609
:1025000065460D7039010D001D40691E8D416942FF
:102510000D00132115408846AC463531C444884629
:10252000A044414665460D7031010D001D40691EF5
:102530008D4169420D00132115408846AC463D315E
:10254000C4448846A044414665460D704946090189
:102550000D001D40691E8D4169420D00132115407B
:102560008846AC464531C4448846A0444146654649
:102570000D7001010D001D40691E8D4169420D0065
:10258000132115408846AC464D31C4448846A044CA
:10259000414665460D7079010D001D40691E8D4153
:1025A00069420D00132115408846AC463631C444BB
:1025B0008846A044414665460D7071010D001D40DE
:1025C000691E8D4169420D00132115408846AC46B5
:1025D0003E31C4448846A044414665460D70494694
:1025E00049010D001D40691E8D4169420D001321F6
:1025F00015408846AC464631C4448846A04441460E
:1026000065460D7041010D001D40691E8D416942F6
:102610000D00132115408846AC464E31C44488460F
:10262000A044414665460D70B9010D001D40691E6C
:102630008D4169420D00132115408846AC46373163
:10264000C4448846A044414665460D70B1010D0062
:102650001D40691E8D4169420D00132115408846B9
:10266000AC463F31C4448846A044414665460D709F
:10267000494689010D001D40691E8D4169420D00CA
:10268000132115408846AC464731C4448846A044CF
:10269000654641460D7081010B40591E8B416221F8
:1026A0008C46A44461465B42134013330B70FB011C
:1026B000FF273B40591E8B414B218C46A444614669
:1026C0005B42134013330B70F3013B405E1EB3417A
:1026D00026005B4213401333533633704B46DB0105
:1026E0003B40591E8B412100C0015B420740134013
:1026F000781E874113335B310B70554623007F42B0
:102700003A401332633301351A7025621CBC90467F
:102710009946A246F0BD092B09D820005546443001
:1027200020220021013500F02FF92562EEE7002379
:10273000002102482362FEF737FDE7E7D4000020BE
:1027400001220A4B82B099691143996199690A4043
:1027500080210092009ADA6949050A43DA61DB694F
:102760000B400193019B02B07047C046001002402D
:10277000802330B5026883B00400DB059A4201D0A3
:1027800003B030BD0123124A124DD169280019430C
:10279000D161D26913400193019B0F4B80222B60C2
:1027A00010236B600023AB606B612033AB6180232F
:1027B000EA608132FF329B012A61EB61FDF7DAFDAD
:1027C000002802D165626C62DAE7FFF75BFBF9E78C
:1027D00000100240900000205800024010B5040094
:1027E00086B01422002101A800F0CEF880232268D0
:1027F000DB059A4201D006B010BD8020094A800254
:10280000516901435161536901A903400093009B41
:1028100090200123C0050193013302930593FDF736
:102820008FFEE8E70010024010B5040088B01422C3
:10283000002103A800F0A8F8124B22689A4201D0A8
:1028400008B010BD8022104B9202D969902011432C
:10285000D961D969C00511400191019959691143A4
:1028600059615B6903A91A400292029B074B0393CB
:102870000223049301330693023B0793FDF760FEA6
:10288000DEE7C04600440040001002400480000023
:102890007047C046FEE7C0467047C0467047C04616
:1028A00010B5FDF7EFFC10BD10B50248FDF7FAFDBD
:1028B00010BDC046900000207047C04613488546B2
:1028C00013480168090E134A914205D11248134971
:1028D000016013481349016013481449144A002346
:1028E00002E0D458C4500433C4188C42F9D3114ABE
:1028F000114C002301E013600432A242FBD3FFF726
:10290000DBFF00F01DF8FFF7E7F8FEE700180020F6
:10291000040000001F000000181002400100000029
:102920000000014000000000000000200C0000201A
:102930001C2A00080C00002094010020FEE7000083
:1029400070B500260C4D0D4C641BA410A64209D195
:10295000002600F021F80A4D0A4C641BA410A64280
:1029600005D170BDB300EB5898470136EEE7B300D0
:10297000EB5898470136F2E7142A0008142A000899
:10298000142A0008182A000803001218934200D1E4
:10299000704719700133F9E7F8B5C046F8BC08BCB8
:1029A0009E467047F8B5C046F8BC08BC9E467047C6
:1029B00002030405060708090A0B0C0D0E0F101080
:1029C0000102030405060708090A0B0C0D0E0F107F
:1029D00000040802E41C0008CC1C0008B61C000817
:1029E0004A1C0008F01C0008441E0008281E0008AD
:1029F0000C1E0008C01D0008521E00080000000048
:102A0000000000000102030406070809000000009E
:042A100001020304B8
:042A1400E9000008CD
:042A1800C1000008F1
:0C2A1C00010000000400000000127A001D
:04000005080028BD0A
:00000001FF
